S028000070726F34455F5465616D325F736F6674776172655F7265706F7274626F6172642E737265634D
S11300000C9434000C9451000C9451000C94510045
S11300100C9451000C9451000C9451000C94510018
S11300200C9451000C9451000C9451000C94510008
S11300300C9451000C9451000C9451000C945100F8
S11300400C9494000C9451000C9451000C945100A5
S11300500C9451000C9451000C9451000C945100D8
S11300600C9451000C94510011241FBECFEFD8E022
S1130070DEBFCDBF12E0A0E0B1E0ECEEFCE002C0D8
S113008005900D92A437B107D9F722E0A4E7B2E0B6
S113009001C01D92A738B207E1F70E94E1010C9458
S11300A074060C9400008AB18F608AB981E68BB91A
S11300B0089589B12091790230917A0280958071F6
S11300C0A901482BCA0190937A028093790208957A
S11300D04E9B03C023E030E002C020E030E04D9BA3
S11300E002C081E028278091740290917502821BDE
S11300F0930B80FF11C030937502209374022091FA
S11301007B0230917C02827099270197820F931FA2
S113011090937C0280937B02089585E085BD81E005
S113012080936E00789408951F920F920FB60F92E9
S113013011242F933F934F935F936F937F938F93E8
S11301409F93AF93BF93EF93FF930E9468000E9425
S11301505900FF91EF91BF91AF919F918F917F9142
S11301606F915F914F913F912F910F900FBE0F9020
S11301701F90189580FF02C0429A01C0429881FFE7
S113018002C0439A01C0439882FF02C0449A01C04E
S1130190449883FF02C0459A01C04598419A85E07E
S11301A08A95F1F7000041980895CF93DF93EC010D
S11301B09595879595958795959587959595879523
S11301C00E94BA00CE018F7099270E94BA0080E97C
S11301D08A95F1F780E98A95F1F7DF91CF91089537
S11301E040980E94D500089540980E94BA0080E982
S11301F08A95F1F708958F77992780680E94F00017
S11302008FE99FE00197F1F700C000000895CF93B4
S1130210C82F80917602882379F0CA3079F081E082
S113022090E00E94F0008FE39CE90197F1F700C091
S113023000001092760206C0CA3021F481E0809357
S113024076020CC0CD3031F0409A8C2F90E00E94A1
S1130250D50004C080EC90E00E94F00080E090E0C3
S1130260CF9108952FEF81EE94E02150804090408B
S1130270E1F700C00000399A389A3A9A3B9A3C9ABE
S11302803D9A419A80E390E00E94F4008FE39CE958
S11302900197F1F700C0000080E390E00E94F400B1
S11302A08FE193E00197F1F700C0000080E390E054
S11302B00E94F4008FE193E00197F1F700C0000081
S11302C082E090E00E94F4008FE99FE00197F1F74B
S11302D000C0000082E090E00E94F4008FE99FE0FB
S11302E00197F1F700C000008CE090E00E94F40058
S11302F08FE391E00197F1F700C0000088E090E0FF
S11303000E94F4008FE391E00197F1F700C0000030
S113031080E090E00E94F4008FE99FE00197F1F7FC
S113032000C0000081E090E00E94F4008FE79EE3AB
S11303300197F1F700C0000080E090E00E94F40013
S11303408FE99FE00197F1F700C0000086E090E09C
S11303500E94F4008FE391E00197F1F700C00000E0
S113036082E090E00E94F40082E090E00E94F400B9
S113037088E290E00E94F0008FEE90E00197F1F7A0
S113038000C000008CE090E00E94F0008FEE90E04E
S11303900197F1F700C0000081E090E00E94F000B6
S11303A08FED9EE20197F1F700C0000086E090E037
S11303B00E94F0008FE99FE00197F1F700C0000070
S11303C008952FEF89E698E1215080409040E1F7AD
S11303D000C0000080E091E0909384028093830247
S11303E00E9432010E9453000E948D0064E070E07C
S11303F083E391E00E943F032FEF81EE94E02150CC
S113040080409040E1F700C0000009E411E00F2EA5
S1130410F5E4CF2EF1E0DF2EF02D0F2EF3E4EF2ED6
S1130420F1E0FF2EF02DC8E5D1E080E090E00E94DD
S1130430FB0080917B0290917C029F938F931F938A
S11304400F930E94A90380E490E00E94FB00809136
S1130450790290917A020F900F900F900F9084FD83
S113046003C08E2D9F2D02C08C2D9D2D9F938F93A5
S1130470DF93CF930E94A9039BB12091790230911D
S11304807A02822F8F6E89238BB92BB180917B02E4
S113049090917C0287709927880F991F922F917FE2
S11304A0892B8BB99FEF23EC89E091502040804049
S11304B0E1F700C000000F900F900F900F90B5CFA0
S11304C0CF93DF93803121F0803209F44CC05FC0B8
S11304D080917B0290917C029923F4F480917B02B9
S11304E090917C0220917D0230917E0291958195BC
S11304F09109281739072CF410927E0210927D027C
S113050046C080917B0290917C02280F391F309362
S11305107E0220937D023BC080910E0120917D02DA
S113052030917E0240917B0250917C02082E000C97
S1130530990B821B930B8417950754F480910E0139
S1130540082E000C990B90937E0280937D021FC0AD
S113055080917B0290917C02280F391F30937E0298
S113056020937D0214C0E0917D02F0917E02EE0F93
S1130570FF1FEE0FFF1F80917F0290918002E80F12
S1130580F91F0280F381E02D309709F0099580E08E
S113059090E00E94FB00E0917D02F0917E02EE0F5C
S11305A0FF1FEE0FFF1F80917F0290918002E80FE2
S11305B0F91F81818F9380818F93C6E6D1E0DF9309
S11305C0CF930E94A90380E490E00E94FB00E09195
S11305D07D02F0917E023196EE0FFF1FEE0FFF1F9A
S11305E080917F0290918002E80FF91F81818F939F
S11305F080818F93DF93CF930E94A90384E190E0DD
S11306000E94FB00E0917D02F0917E023296EE0F93
S1130610FF1FEE0FFF1F80917F0290918002E80F71
S1130620F91F81818F9380818F93DF93CF930E94F1
S1130630A90384E590E00E94FB00E0917D02F09123
S11306407E023396EE0FFF1FEE0FFF1F80917F0295
S113065090918002E80FF91F81818F9380818F939D
S1130660DF93CF930E94A9038DB79EB740960FB630
S1130670F8949EBF0FBE8DBFDF91CF9108959093E4
S1130680800280937F0270937802609377021092C5
S11306907E0210927D0280E00E9460020895089517
S11306A062E070E08BE291E00E943F03089562E013
S11306B070E083E291E00E943F03089564E070E0FB
S11306C083E191E00E943F03089561E070E08FE0D0
S11306D091E00E943F03089564E070E083E391E0B9
S11306E00E943F03089580E090E00E94FB0089E6A9
S11306F091E09F938F930E94A90380E490E00E946D
S1130700FB0084E590E00E94FB0064E070E083E37A
S113071091E00E943F030F900F90089587E791E0C6
S11307209F938F930E94A9030F900F9008958CE8D4
S113073091E09F938F930E94A9030F900F900895C7
S113074084EA91E09F938F930E94A9030F900F90E6
S11307500895A0E0B0E0EFEAF3E00C944D06AE019A
S11307604B5F5F4FFA0161917191AF0180918302F8
S1130770909184020E94BF03E2E00C946906ACE00D
S1130780B0E0E5ECF3E00C943D067C016B018A01DA
S1130790FC0117821682838181FFBDC1CE010196BF
S11307A04C01F7019381F60193FD859193FF8191AB
S11307B06F01882309F4ABC1853239F493FD859127
S11307C093FF81916F01853229F4B70190E00E9473
S11307D0A705E7CF512C312C20E02032A0F48B3236
S11307E069F030F4803259F0833269F420612CC00E
S11307F08D3239F0803339F4216026C022602460C0
S113080023C0286021C027FD27C030ED380F3A30BF
S113081078F426FF06C0FAE05F9E300D1124532EB3
S113082013C08AE0389E300D1124332E20620CC090
S11308308E3221F426FD6BC1206406C08C3611F47F
S1130840206802C0883641F4F60193FD859193FF38
S113085081916F018111C1CF982F9F7D9554933061
S113086028F40C5F1F4FFFE3F9830DC0833631F08A
S1130870833771F0833509F05BC022C0F8018081B1
S113088089830E5F1F4F44244394512C540115C097
S11308903801F2E06F0E711CF801A080B18026FFD0
S11308A003C0652D70E002C06FEF7FEFC5012C8798
S11308B00E949C052C0183012C852F77222E17C0C2
S11308C03801F2E06F0E711CF801A080B18026FFA0
S11308D003C0652D70E002C06FEF7FEFC5012C8768
S11308E00E9491052C012C852068222E830123FC73
S11308F01BC0832D90E048165906B0F4B70180E27E
S113090090E00E94A7053A94F4CFF50127FC859165
S113091027FE81915F01B70190E00E94A705311085
S11309203A94F1E04F1A51084114510471F7E5C0AB
S1130930843611F0893639F5F80127FF07C0608144
S11309407181828193810C5F1F4F08C06081718126
S1130950072E000C880B990B0E5F1F4F2F76722EFB
S113096097FF09C090958095709561957F4F8F4F43
S11309709F4F2068722E2AE030E0A4010E94DF0518
S1130980A82EA81844C0853729F42F7EB22E2AE059
S113099030E025C0F22FF97FBF2E8F36C1F018F456
S11309A0883579F0B4C0803719F0883721F0AFC0AA
S11309B02F2F2061B22EB4FE0DC08B2D8460B82E73
S11309C009C024FF0AC09F2F9660B92E06C028E0F4
S11309D030E005C020E130E002C020E132E0F8015F
S11309E0B7FE07C060817181828193810C5F1F4FC4
S11309F006C06081718180E090E00E5F1F4FA4010A
S1130A000E94DF05A82EA818FB2DFF777F2E76FE07
S1130A100BC0372D3E7FA51450F474FE0AC072FC3F
S1130A2008C0372D3E7E05C0BA2C372D03C0BA2C22
S1130A3001C0B52C34FF0DC0FE01EA0DF11D80810B
S1130A40803311F4397E09C032FF06C0B394B394E5
S1130A5004C0832F867809F0B39433FD13C030FFAC
S1130A6006C05A2CB31418F4530C5B18B32CB314EB
S1130A7068F4B70180E290E03C870E94A705B39434
S1130A803C85F5CFB31410F43B1801C0312C34FF6E
S1130A9012C0B70180E390E03C870E94A7053C8523
S1130AA032FF17C031FD03C088E790E002C088E53B
S1130AB090E0B7010CC0832F867859F031FF02C053
S1130AC08BE201C080E237FD8DE2B70190E00E9425
S1130AD0A705A51438F4B70180E390E00E94A705A8
S1130AE05A94F7CFAA94F401EA0DF11D8081B7015D
S1130AF090E00E94A705A110F5CF332009F451CE50
S1130B00B70180E290E00E94A7053A94F6CFF7017E
S1130B108681978102C08FEF9FEF2C96E2E10C94BF
S1130B205906FC010590615070400110D8F780957A
S1130B3090958E0F9F1F0895FC01615070400190A5
S1130B400110D8F7809590958E0F9F1F08950F93ED
S1130B501F93CF93DF93FB01238121FD03C08FEF0C
S1130B609FEF28C022FF16C046815781248135811A
S1130B704217530744F4A081B1819D012F5F3F4F79
S1130B80318320838C93268137812F5F3F4F3783B6
S1130B90268310C0EB01092F182F0084F185E02D66
S1130BA00995892BE1F68E819F8101969F838E831F
S1130BB0812F902FDF91CF911F910F910895FA010A
S1130BC0AA27283051F1203181F1E8946F936E7F88
S1130BD06E5F7F4F8F4F9F4FAF4FB1E03ED0B4E079
S1130BE03CD0670F781F891F9A1FA11D680F791FBA
S1130BF08A1F911DA11D6A0F711D811D911DA11DCB
S1130C0020D009F468943F912AE0269F11243019DA
S1130C10305D3193DEF6CF010895462F4770405D75
S1130C204193B3E00FD0C9F7F6CF462F4F70405D24
S1130C304A3318F0495D31FD4052419302D0A9F77F
S1130C40EACFB4E0A6959795879577956795BA9579
S1130C50C9F700976105710508959B01AC010A2E3F
S1130C6006945795479537952795BA95C9F7620F16
S1130C70731F841F951FA01D08952F923F924F92BA
S1130C805F926F927F928F929F92AF92BF92CF9218
S1130C90DF92EF92FF920F931F93CF93DF93CDB721
S1130CA0DEB7CA1BDB0B0FB6F894DEBF0FBECDBF99
S1130CB009942A88398848885F846E847D848C846A
S1130CC09B84AA84B984C884DF80EE80FD800C8173
S1130CD01B81AA81B981CE0FD11D0FB6F894DEBF56
S10F0CE00FBECDBFED010895F894FFCFC6
S1130CEC000000020000000007010000000004B92D
S1130CFC016C03CA019703DC01A003EC014F03B997
S1130D0C016C03FA018E0311026C032B02730311A1
S1130D1C026C0335025003490257035B025E036EF7
S1130D2C026503726573657400656E635F64656C5C
S1130D3C7461203D20256400627574746F6E2069A3
S1130D4C732025730A002573004564697420746844
S1130D5C65206E616D65004E756D626572206F66FF
S1130D6C204D6F64756C6573203A2000566F6C745B
S1130D7C616765206F662074686520737973746588
S1130D8C6D203A00706F776572206F662074686509
S1130D9C20706C616E74203A004261636B20746F36
S1130DAC204D61696E6D656E7500566F6C7461676C
S1130DBC65206F662073797374656D00506F776569
S1130DCC72206F662073797374656D004E6F74694D
S1130DDC6669636174696F6E730045646974206E2F
S1130DEC756D626572206F66206D6F64756C6573CA
S1130DFC005361766520616E64206261636B2074BC
S1130E0C6F206D61696E6D656E7500456469742043
S1130E1C4E616D65004E616D65206F6620706F7755
S1130E2C657220706C616E74004E756D6265722013
S1130E3C6F66206D6F64756C657300506F776572A7
S1130E4C20506C616E74205374617475730041622C
S1070E5C6F75740036
S9030000FC
