S028000070726F34455F5465616D325F736F6674776172655F7265706F7274626F6172642E737265634D
S11300000C9434000C9451000C9451000C94510045
S11300100C9451000C9451000C9451000C94510018
S11300200C9451000C9451000C9451000C94510008
S11300300C9451000C9451000C9451000C945100F8
S11300400C948F000C9451000C9451000C945100AA
S11300500C9451000C9451000C9451000C945100D8
S11300600C9451000C94510011241FBECFEFD8E022
S1130070DEBFCDBF12E0A0E0B1E0E6EFFAE002C0DF
S113008005900D92AE36B107D9F722E0AEE6B2E0A4
S113009001C01D92A038B207E1F70E94DC010C9464
S11300A079050C9400008AB18F608AB980E78BB916
S11300B0089589B120917202309173028095807104
S11300C0A901482BCA019093730280937202089588
S11300D04E9B02C093E001C090E04D9B02C081E0C2
S11300E0982780916E02891B80FF11C090936E0245
S11300F020917402309175028270082E000C990BC5
S11301000197820F931F9093750280937402089550
S113011085E085BD81E080936E00789408951F92F8
S11301200F920FB60F9211242F933F934F935F9327
S11301306F937F938F939F93AF93BF93EF93FF93AB
S11301400E9468000E945900FF91EF91BF91AF9106
S11301509F918F917F916F915F914F913F912F91DB
S11301600F900FBE0F901F90189580FF02C0429A07
S113017001C0429881FF02C0439A01C0439882FFA4
S113018002C0449A01C0449883FF02C0459A01C04A
S11301904598419A85E08A95F1F7000041980895C1
S11301A0CF93DF93EC0195958795959587959595D4
S11301B08795959587950E94B500CE018F709927F4
S11301C00E94B50080E98A95F1F780E98A95F1F7F4
S11301D0DF91CF91089540980E94D00008954098EF
S11301E00E94B50080E98A95F1F708958F779927E1
S11301F080680E94EB008FE99FE00197F1F700C04F
S113020000000895CF93C82F80916F02882379F05E
S1130210CA3079F081E090E00E94EB008FE39CE922
S11302200197F1F700C0000010926F0206C0CA30B7
S113023021F481E080936F020CC0CD3031F0409AFC
S11302408C2F90E00E94D00004C080EC90E00E94CB
S1130250EB0080E090E0CF9108952FEF81EE94E0E1
S1130260215080409040E1F700C00000399A389A4C
S11302703A9A3B9A3C9A3D9A419A80E390E00E94D4
S1130280EF008FE39CE90197F1F700C0000080E3E1
S113029090E00E94EF008FE193E00197F1F700C036
S11302A0000080E390E00E94EF008FE193E001976B
S11302B0F1F700C0000082E090E00E94EF008FE9B7
S11302C09FE00197F1F700C0000082E090E00E94F7
S11302D0EF008FE99FE00197F1F700C000008CE088
S11302E090E00E94EF008FE391E00197F1F700C0E6
S11302F0000088E090E00E94EF008FE391E0019716
S1130300F1F700C0000080E090E00E94EF008FE968
S11303109FE00197F1F700C0000081E090E00E94A7
S1130320EF008FE79EE30197F1F700C0000080E043
S113033090E00E94EF008FE99FE00197F1F700C081
S1130340000086E090E00E94EF008FE391E00197C7
S1130350F1F700C0000082E090E00E94EF0082E02C
S113036090E00E94EF0088E290E00E94EB008FEEA4
S113037090E00197F1F700C000008CE090E00E944B
S1130380EB008FEE90E00197F1F700C0000081E0F0
S113039090E00E94EB008FED9EE20197F1F700C020
S11303A0000086E090E00E94EB008FE99FE0019757
S11303B0F1F700C0000008952FEF89E698E121507D
S11303C080409040E1F700C0000080E091E090930D
S11303D07D0280937C020E942D010E9453000E94A2
S11303E0880064E070E082E391E00E9447022FEF0E
S11303F081EE94E0215080409040E1F700C000007D
S11304000F2EF4E4EF2EF1E0FF2EF02D02E411E0C4
S1130410C8E4D1E0809172029091730284FD03C01C
S1130420202F312F02C02E2D3F2D809174029091E8
S113043075023F932F939F938F93DF93CF930E94E3
S1130440AE029BB12091720230917302822F8F6EA3
S113045089238BB92BB180917402909175028770B6
S11304609927880F991F922F917F892B8BB99FEF22
S113047023EC89E0915020408040E1F700C0000067
S11304800F900F900F900F900F900F90C3CF9093F9
S113049079028093780270937102609370021092D3
S11304A07702109276020895089562E070E08AE27D
S11304B091E00E944702089562E070E082E291E0D8
S11304C00E944702089564E070E082E191E00E9496
S11304D04702089561E070E08EE091E00E944702D7
S11304E0089564E070E082E391E00E944702089579
S11304F080E090E00E94F60082E691E09F938F9363
S11305000E94AE0280E490E00E94F60084E590E050
S11305100E94F60064E070E082E391E00E944702EA
S11305200F900F90089580E791E09F938F930E941E
S1130530AE020F900F90089585E891E09F938F93FA
S11305400E94AE020F900F9008958DE991E09F9361
S11305508F930E94AE020F900F900895A0E0B0E038
S1130560E4EBF2E00C945205AE014B5F5F4FFA01ED
S113057061917191AF0180917C0290917D020E9402
S1130580C402E2E00C946E05ACE0B0E0EAECF2E008
S11305900C9442057C016B018A01FC0117821682CE
S11305A0838181FFBDC1CE0101964C01F701938186
S11305B0F60193FD859193FF81916F01882309F4DE
S11305C0ABC1853239F493FD859193FF81916F011D
S11305D0853229F4B70190E00E94AC04E7CF512C96
S11305E0312C20E02032A0F48B3269F030F48032D8
S11305F059F0833269F420612CC08D3239F0803394
S113060039F4216026C02260246023C0286021C000
S113061027FD27C030ED380F3A3078F426FF06C0A6
S1130620FAE05F9E300D1124532E13C08AE0389EE9
S1130630300D1124332E20620CC08E3221F426FD9D
S11306406BC1206406C08C3611F4206802C0883661
S113065041F4F60193FD859193FF81916F0181111E
S1130660C1CF982F9F7D9554933028F40C5F1F4F72
S1130670FFE3F9830DC0833631F0833771F083359E
S113068009F05BC022C0F801808189830E5F1F4F8F
S113069044244394512C540115C03801F2E06F0EE8
S11306A0711CF801A080B18026FF03C0652D70E0A5
S11306B002C06FEF7FEFC5012C870E94A1042C01BB
S11306C083012C852F77222E17C03801F2E06F0E9C
S11306D0711CF801A080B18026FF03C0652D70E075
S11306E002C06FEF7FEFC5012C870E9496042C0196
S11306F02C852068222E830123FC1BC0832D90E0CF
S113070048165906B0F4B70180E290E00E94AC04A8
S11307103A94F4CFF50127FC859127FE81915F017E
S1130720B70190E00E94AC0431103A94F1E04F1A02
S113073051084114510471F7E5C0843611F089362B
S113074039F5F80127FF07C06081718182819381A7
S11307500C5F1F4F08C060817181072E000C880B4D
S1130760990B0E5F1F4F2F76722E97FF09C090953D
S11307708095709561957F4F8F4F9F4F2068722EA3
S11307802AE030E0A4010E94E404A82EA81844C082
S1130790853729F42F7EB22E2AE030E025C0F22FCF
S11307A0F97FBF2E8F36C1F018F4883579F0B4C0C4
S11307B0803719F0883721F0AFC02F2F2061B22E77
S11307C0B4FE0DC08B2D8460B82E09C024FF0AC06E
S11307D09F2F9660B92E06C028E030E005C020E1C6
S11307E030E002C020E132E0F801B7FE07C06081CA
S11307F07181828193810C5F1F4F06C0608171817A
S113080080E090E00E5F1F4FA4010E94E404A82E34
S1130810A818FB2DFF777F2E76FE0BC0372D3E7F69
S1130820A51450F474FE0AC072FC08C0372D3E7E35
S113083005C0BA2C372D03C0BA2C01C0B52C34FF27
S11308400DC0FE01EA0DF11D8081803311F4397E63
S113085009C032FF06C0B394B39404C0832F8678D2
S113086009F0B39433FD13C030FF06C05A2CB314FF
S113087018F4530C5B18B32CB31468F4B70180E27A
S113088090E03C870E94AC04B3943C85F5CFB3144C
S113089010F43B1801C0312C34FF12C0B70180E3BF
S11308A090E03C870E94AC043C8532FF17C031FDC8
S11308B003C088E790E002C088E590E0B7010CC06F
S11308C0832F867859F031FF02C08BE201C080E2A9
S11308D037FD8DE2B70190E00E94AC04A51438F412
S11308E0B70180E390E00E94AC045A94F7CFAA9435
S11308F0F401EA0DF11D8081B70190E00E94AC047F
S1130900A110F5CF332009F451CEB70180E290E075
S11309100E94AC043A94F6CFF7018681978102C015
S11309208FEF9FEF2C96E2E10C945E05FC0105909D
S1130930615070400110D8F7809590958E0F9F1FDD
S11309400895FC016150704001900110D8F7809522
S113095090958E0F9F1F08950F931F93CF93DF934E
S1130960FB01238121FD03C08FEF9FEF28C022FFED
S113097016C046815781248135814217530744F4B8
S1130980A081B1819D012F5F3F4F318320838C93E0
S1130990268137812F5F3F4F3783268310C0EB01B9
S11309A0092F182F0084F185E02D0995892BE1F694
S11309B08E819F8101969F838E83812F902FDF915B
S11309C0CF911F910F910895FA01AA27283051F170
S11309D0203181F1E8946F936E7F6E5F7F4F8F4F6C
S11309E09F4FAF4FB1E03ED0B4E03CD0670F781FCB
S11309F0891F9A1FA11D680F791F8A1F911DA11DB0
S1130A006A0F711D811D911DA11D20D009F46894E8
S1130A103F912AE0269F11243019305D3193DEF690
S1130A20CF010895462F4770405D4193B3E00FD046
S1130A30C9F7F6CF462F4F70405D4A3318F0495D31
S1130A4031FD4052419302D0A9F7EACFB4E0A69514
S1130A509795879577956795BA95C9F70097610536
S1130A60710508959B01AC010A2E0694579547958C
S1130A7037952795BA95C9F7620F731F841F951F81
S1130A80A01D08952F923F924F925F926F927F9292
S1130A908F929F92AF92BF92CF92DF92EF92FF928A
S1130AA00F931F93CF93DF93CDB7DEB7CA1BDB0B36
S1130AB00FB6F894DEBF0FBECDBF09942A883988DB
S1130AC048885F846E847D848C849B84AA84B984E2
S1130AD0C884DF80EE80FD800C811B81AA81B981EE
S1130AE0CE0FD11D0FB6F894DEBF0FBECDBFED0102
S1090AF00895F894FFCF05
S1130AF60000000200000000020100000000B20134
S1130B067102C3019C02D501A502E5015402B2019A
S1130B167102F30193020A027102240278020A02A4
S1130B2671022E02550242025C02540263026702FB
S1130B366A02726573657400656E635F64656C74DE
S1130B46613D25640D627574746F6E20697320258A
S1130B5673004564697420746865206E616D650070
S1130B664E756D626572206F66204D6F64756C6597
S1130B7673203A2000566F6C74616765206F662097
S1130B867468652073797374656D203A00706F77A5
S1130B966572206F662074686520706C616E7420BF
S1130BA63A004261636B20746F204D61696E6D6516
S1130BB66E7500566F6C74616765206F6620737975
S1130BC67374656D00506F776572206F6620737954
S1130BD67374656D004E6F74696669636174696FD9
S1130BE66E730045646974206E756D626572206F5C
S1130BF666206D6F64756C6573005361766520615C
S1130C066E64206261636B20746F206D61696E6D22
S1130C16656E750045646974204E616D65004E61AC
S1130C266D65206F6620706F77657220706C616EDB
S1130C3674004E756D626572206F66206D6F647503
S1130C466C657300506F77657220506C616E74200A
S1110C565374617475730041626F757400000D
S9030000FC
