S01200005350495F4D53706173732E7372656370
S11300000C9434000C943E000C943E000C943E007E
S11300100C943E000C943E000C943E000C943E0064
S11300200C943E000C943E000C943E000C943E0054
S11300300C943E000C943E000C943E000C943E0044
S11300400C943E000C943E000C943E000C943E0034
S11300500C943E000C943E000C943E000C943E0024
S11300600C943E000C943E0011241FBECFEFD8E048
S1130070DEBFCDBF0E9451000C945F000C940000C1
S11300808CE284B98CB5877D8CBD8CB58D658CBDB7
S113009008958DE08EBD0DB407FEFDCF80E090E0A5
S11300A008950E9440000E9449002FEF89EF90E0DC
S11300B0215080409040E1F700C00000F4CFF89454
S10500C0FFCF6C
S9030000FC
