:100000000C9434000C943E000C943E000C943E0082
:100010000C943E000C943E000C943E000C943E0068
:100020000C943E000C943E000C943E000C943E0058
:100030000C943E000C943E000C943E000C943E0048
:100040000C943E000C943E000C943E000C943E0038
:100050000C943E000C943E000C943E000C943E0028
:100060000C943E000C943E0011241FBECFEFD8E04C
:10007000DEBFCDBF0E945A000C945F000C940000BC
:1000800087E084B98CB5877D8CBD8CB584658CBDCB
:100090008CB58C7F8CBD8DB58E7F8DBD8DB581600F
:1000A0008DBD08958DE08EBD0DB407FEFDCF80E0BF
:1000B00090E008950E9440000E945200FDCFF89405
:0200C000FFCF70
:00000001FF
