:100000000C9434000C9446000C9446000C9446006A
:100010000C9446000C9446000C9446000C94460048
:100020000C9446000C9446000C9446000C94460038
:100030000C9446000C9446000C9446000C94460028
:100040000C9446000C9446000C9446000C94460018
:100050000C9446000C9446000C9446000C94460008
:100060000C9446000C94460011241FBECFEFD8E03C
:10007000DEBFCDBF21E0A0E0B1E001C01D92A03005
:10008000B207E1F70E9459000C9468000C9400003C
:100090008CE284B98CB5877D8CBD8CB58D658CBDAB
:1000A00008958DE08EBD0DB407FEFDCF80E090E099
:1000B00008950E94480078940E9451002FEF89EF24
:1000C00090E0215080409040E1F700C00000F4CF64
:0400D000F894FFCFD2
:00000001FF
