:100000000C9434000C9451000C9451000C94510049
:100010000C9451000C9451000C9451000C9451001C
:100020000C9451000C9451000C9451000C9451000C
:100030000C9451000C9451000C9451000C945100FC
:100040000C9451000C9451000C9451000C945100EC
:100050000C9451000C9451000C9451000C945100DC
:100060000C9451000C94510011241FBECFEFD8E026
:10007000DEBFCDBF11E0A0E0B1E0EAE1F3E002C0F5
:1000800005900D92AE30B107D9F721E0AEE0B1E0B6
:1000900001C01D92A631B207E1F70E946E010C94D7
:1000A0008B010C94000080FF02C0429A01C042986C
:1000B00081FF02C0439A01C0439882FF02C0449A64
:1000C00001C0449883FF02C0459A01C04598419AF7
:1000D00085E08A95F1F7000041980895CF93DF936A
:1000E000EC01959587959595879595958795959527
:1000F00087950E945300CE018F7099270E9453006C
:1001000080E98A95F1F780E98A95F1F7DF91CF913F
:10011000089540980E946E00089540980E945300F0
:1001200080E98A95F1F70895CF93C82F80910E0149
:10013000882379F0CA3079F081E090E00E9489004C
:100140008FE39CE90197F1F700C0000010920E01C7
:1001500006C0CA3021F481E080930E010CC0CD307E
:1001600031F0409A8C2F90E00E946E0004C080EC29
:1001700090E00E94890080E090E0CF9108952FEFF9
:1001800081EE94E0215080409040E1F700C00000F3
:10019000399A389A3A9A3B9A3C9A3D9A419A80E326
:1001A00090E00E948D008FE39CE90197F1F700C079
:1001B000000080E390E00E948D008FE193E00197C2
:1001C000F1F700C0000080E390E00E948D008FE115
:1001D00093E00197F1F700C0000082E090E00E94F8
:1001E0008D008FE99FE00197F1F700C0000082E0E9
:1001F00090E00E948D008FE99FE00197F1F700C029
:1002000000008CE090E00E948D008FE391E0019768
:10021000F1F700C0000088E090E00E948D008FE3BD
:1002200091E00197F1F700C0000080E090E00E94AB
:100230008D008FE99FE00197F1F700C0000081E099
:1002400090E00E948D008FE79EE30197F1F700C0D8
:10025000000080E090E00E948D008FE99FE0019710
:10026000F1F700C0000086E090E00E948D008FE36F
:1002700091E00197F1F700C0000082E090E00E9459
:100280008D0082E090E00E948D0088E290E00E9464
:1002900089008FEE90E00197F1F700C000008CE03C
:1002A00090E00E9489008FEE90E00197F1F700C086
:1002B000000081E090E00E9489008FED9EE20197AE
:1002C000F1F700C0000086E090E00E9489008FE90D
:1002D0009FE00197F1F700C0000008952FEF89E635
:1002E00098E1215080409040E1F700C0000080E09C
:1002F00091E090931301809312010E94BF0082E06D
:1003000084BD81E080936E008FEF84B978948091F2
:0A0310000F0185B9FCCFF894FFCF70
:0E031A0000000002000000009400000000003F
:00000001FF
