S028000070726F34455F5465616D325F736F6674776172655F7265706F7274626F6172642E737265634D
S11300000C9434000C9451000C9451000C94510045
S11300100C9451000C9451000C9451000C94510018
S11300200C9451000C9451000C9451000C94510008
S11300300C9451000C9451000C9451000C945100F8
S11300400C9451000C9451000C9451000C945100E8
S11300500C9451000C9451000C9451000C945100D8
S11300600C9451000C94510011241FBECFEFD8E022
S1130070DEBFCDBF11E0A0E0B1E0E0E5F9E002C0F1
S113008005900D92A232B107D9F721E0A2E2B1E0C6
S113009001C01D92A932B207E1F70E94B5010C9488
S11300A0A6040C94000080FF02C0459A01C0459844
S11300B081FF02C0449A01C0449882FF02C0439A5F
S11300C001C0439883FF02C0429A01C042985B9AE0
S11300D085E08A95F1F700005B980895CF93DF934C
S11300E0EC01409895958795959587959595879575
S11300F0959587950E945300CE018F7099270E9491
S1130100530080E98A95F1F7DF91CF9108954098E3
S11301100E94530080E98A95F1F708958F77992713
S113012080680E946E008FE99FE00197F1F700C09C
S113013000000895CF93C82F80912201882379F07D
S1130140CA3079F081E090E00E946E008FE39CE970
S11301500197F1F700C000001092220106C0CA30D6
S113016021F481E0809322011CC0CD30B1F0409A8B
S11301708C2F90E09595879595958795959587957E
S1130180959587950E9453008C2F8F7090E00E9464
S1130190530090E99A95F1F704C080EC90E00E9436
S11301A06E0080E090E0CF9108952FEF81EE94E00F
S11301B0215080409040E1F700C00000539A389AE3
S11301C03D9A3C9A3B9A3A9A5B9A80E390E00E946B
S11301D087008FE39CE90197F1F700C0000080E3FA
S11301E090E00E9487008FE193E00197F1F700C04F
S11301F0000080E390E00E9487008FE193E0019784
S1130200F1F700C0000082E090E00E9487008FE9CF
S11302109FE00197F1F700C0000082E090E00E94A7
S113022087008FE99FE00197F1F700C000008CE0A0
S113023090E00E9487008FE391E00197F1F700C0FE
S1130240000088E090E00E9487008FE391E001972E
S1130250F1F700C0000080E090E00E9487008FE981
S11302609FE00197F1F700C0000081E090E00E9458
S113027087008FE79EE30197F1F700C0000080E05C
S113028090E00E9487008FE99FE00197F1F700C09A
S1130290000086E090E00E9487008FE391E00197E0
S11302A0F1F700C0000082E090E00E94870082E045
S11302B090E00E94870088E290E00E946E008FEE3A
S11302C090E00197F1F700C000008CE090E00E94FC
S11302D06E008FEE90E00197F1F700C0000081E01E
S11302E090E00E946E008FED9EE20197F1F700C04E
S11302F0000086E090E00E946E008FE99FE0019785
S1130300F1F700C000000895CF93DF9380E090E000
S11303100E948E008EE091E09F938F930E94DB01F8
S113032080E490E00E948E00CAE1D1E0DF93CF9395
S11303300E94DB0180E190E00E948E00DF93CF9366
S11303400E94DB0180E590E00E948E00DF93CF9352
S11303500E94DB018DB79EB708960FB6F8949EBF36
S11303600FBE8DBFDF91CF9108952FEF89E698E1FD
S1130370215080409040E1F700C0000080E091E00F
S113038090932601809325010E94D5002FEF81EEE2
S113039094E0215080409040E1F700C000000E94AA
S11303A084012FEF83ED90E3215080409040E1F7EA
S11303B000C00000F4CFA0E0B0E0E1EEF1E00C9466
S11303C07F04AE014B5F5F4FFA0161917191AF0100
S11303D080912501909126010E94F101E2E00C94A4
S11303E09B04ACE0B0E0E7EFF1E00C946F047C0117
S11303F06B018A01FC0117821682838181FFBDC1D2
S1130400CE0101964C01F7019381F60193FD85918C
S113041093FF81916F01882309F4ABC1853239F4CC
S113042093FD859193FF81916F01853229F4B70182
S113043090E00E94D903E7CF512C312C20E02032E8
S1130440A0F48B3269F030F4803259F0833269F4CD
S113045020612CC08D3239F0803339F4216026C0FC
S11304602260246023C0286021C027FD27C030ED0E
S1130470380F3A3078F426FF06C0FAE05F9E300D5C
S11304801124532E13C08AE0389E300D1124332ECC
S113049020620CC08E3221F426FD6BC1206406C09C
S11304A08C3611F4206802C0883641F4F60193FDBD
S11304B0859193FF81916F018111C1CF982F9F7D09
S11304C09554933028F40C5F1F4FFFE3F9830DC05C
S11304D0833631F0833771F0833509F05BC022C075
S11304E0F801808189830E5F1F4F44244394512C6B
S11304F0540115C03801F2E06F0E711CF801A080A0
S1130500B18026FF03C0652D70E002C06FEF7FEF5E
S1130510C5012C870E94CE032C0183012C852F77E3
S1130520222E17C03801F2E06F0E711CF801A08072
S1130530B18026FF03C0652D70E002C06FEF7FEF2E
S1130540C5012C870E94C3032C012C852068222E10
S1130550830123FC1BC0832D90E048165906B0F498
S1130560B70180E290E00E94D9033A94F4CFF501F8
S113057027FC859127FE81915F01B70190E00E94DD
S1130580D90331103A94F1E04F1A5108411451043F
S113059071F7E5C0843611F0893639F5F80127FF83
S11305A007C060817181828193810C5F1F4F08C0F5
S11305B060817181072E000C880B990B0E5F1F4F11
S11305C02F76722E97FF09C090958095709561954E
S11305D07F4F8F4F9F4F2068722E2AE030E0A40196
S11305E00E941104A82EA81844C0853729F42F7E30
S11305F0B22E2AE030E025C0F22FF97FBF2E8F36CD
S1130600C1F018F4883579F0B4C0803719F0883710
S113061021F0AFC02F2F2061B22EB4FE0DC08B2D60
S11306208460B82E09C024FF0AC09F2F9660B92E9B
S113063006C028E030E005C020E130E002C020E13F
S113064032E0F801B7FE07C0608171818281938135
S11306500C5F1F4F06C06081718180E090E00E5FE7
S11306601F4FA4010E941104A82EA818FB2DFF7788
S11306707F2E76FE0BC0372D3E7FA51450F474FEFA
S11306800AC072FC08C0372D3E7E05C0BA2C372D37
S113069003C0BA2C01C0B52C34FF0DC0FE01EA0D15
S11306A0F11D8081803311F4397E09C032FF06C008
S11306B0B394B39404C0832F867809F0B39433FDC4
S11306C013C030FF06C05A2CB31418F4530C5B1833
S11306D0B32CB31468F4B70180E290E03C870E9425
S11306E0D903B3943C85F5CFB31410F43B1801C07F
S11306F0312C34FF12C0B70180E390E03C870E94A4
S1130700D9033C8532FF17C031FD03C088E790E070
S113071002C088E590E0B7010CC0832F867859F0B9
S113072031FF02C08BE201C080E237FD8DE2B701E8
S113073090E00E94D903A51438F4B70180E390E057
S11307400E94D9035A94F7CFAA94F401EA0DF11D3B
S11307508081B70190E00E94D903A110F5CF332026
S113076009F451CEB70180E290E00E94D9033A9493
S1130770F6CFF7018681978102C08FEF9FEF2C9609
S1130780E2E10C948B04FC0105906150704001106F
S1130790D8F7809590958E0F9F1F0895FC016150A6
S11307A0704001900110D8F7809590958E0F9F1F8F
S11307B008950F931F93CF93DF93FB01238121FDB2
S11307C003C08FEF9FEF28C022FF16C046815781D8
S11307D0248135814217530744F4A081B1819D01DE
S11307E02F5F3F4F318320838C93268137812F5F86
S11307F03F4F3783268310C0EB01092F182F008445
S1130800F185E02D0995892BE1F68E819F81019672
S11308109F838E83812F902FDF91CF911F910F9112
S11308200895FA01AA27283051F1203181F1E89482
S11308306F936E7F6E5F7F4F8F4F9F4FAF4FB1E0CF
S11308403ED0B4E03CD0670F781F891F9A1FA11DCA
S1130850680F791F8A1F911DA11D6A0F711D811DCB
S1130860911DA11D20D009F468943F912AE0269F90
S113087011243019305D3193DEF6CF010895462FEF
S11308804770405D4193B3E00FD0C9F7F6CF462FD0
S11308904F70405D4A3318F0495D31FD4052419339
S11308A002D0A9F7EACFB4E0A695979587957795F6
S11308B06795BA95C9F700976105710508959B017D
S11308C0AC010A2E06945795479537952795BA9506
S11308D0C9F7620F731F841F951FA01D08952F92DF
S11308E03F924F925F926F927F928F929F92AF92BC
S11308F0BF92CF92DF92EF92FF920F931F93CF9309
S1130900DF93CDB7DEB7CA1BDB0B0FB6F894DEBF9F
S11309100FBECDBF09942A88398848885F846E84C5
S11309207D848C849B84AA84B984C884DF80EE800F
S1130930FD800C811B81AA81B981CE0FD11D0FB618
S1130940F894DEBF0FBECDBFED010895F894FFCF3C
S113095000000002000000009A0000000000466F42
S1130960722052756E6E6572730042756E20446912
S1050970000081
S9030000FC
