:100000000C9454000C9466000C9466000C946600EA
:100010000C9466000C9466000C9466000C946600C8
:100020000C9466000C9466000C9466000C946600B8
:100030000C9466000C9466000C9466000C946600A8
:100040000C9466000C9466000C94DA000C94080181
:100050000C9466000C9466000C9466000C94660088
:100060000C9466000C946600427566666572206F9B
:10007000766572666C6F77206572726F723A2000D7
:1000800055415254204F76657272756E20457272DA
:100090006F723A200055415254204672616D6520BE
:1000A0004572726F723A200011241FBECFEFD8E064
:1000B000DEBFCDBF21E0A0E0B1E001C01D92A534BC
:1000C000B207E1F70E9475000C9490010C940000B7
:1000D00015B884B1866184B918B887B187B984E04E
:1000E0008BB98AB1846C8AB908950E9468000E9415
:1000F00081000E949B0078940E948A000E94A600C2
:10010000FBCF8CE284B98CB5877D8CBD8CB58D65B9
:100110008CBD0895CF93DF931F92CDB7DEB78DE0EE
:10012000898389818EBD0DB407FEFDCF8EB50F90FA
:10013000DF91CF91089580E699E00E94320180E13D
:1001400088B988B188B982E08AB90895EF92FF92A0
:100150000F931F93CF93DF930E948A00E82E08E04D
:1001600010E08E2D0E9469010E944B01F82EC82FCD
:10017000D92FD0FD15C0D4FF04C085E990E00E94BE
:100180007E01D3FF04C080E890E00E947E01D1FF91
:1001900004C088E690E00E947E018F2D0E946901D4
:1001A00001501109F1F6DF91CF911F910F91FF904E
:1001B000EF9008951F920F920FB60F9211242F9374
:1001C0008F939F93EF93FF938091C0002091C6007F
:1001D0008C71E0910201EF5FEF7190910101E917DD
:1001E00039F0E0930201F0E0EB5FFE4F208301C0A5
:1001F00082E090910001892B80930001FF91EF91A3
:100200009F918F912F910F900FBE0F901F90189577
:100210001F920F920FB60F9211248F939F93EF931B
:10022000FF939091040180910301981769F0E09188
:100230000301EF5FEF71E0930301F0E0EB5DFE4F30
:1002400080818093C60005C0E1ECF0E080818F7D65
:100250008083FF91EF919F918F910F900FBE0F9030
:100260001F90189510920401109203011092020140
:100270001092010199231CF422E02093C000907891
:100280009093C5008093C40088E98093C10086E004
:100290008093C20008959091020180910101981706
:1002A000A9F0909101019F5F9F71E92FF0E0EB5F52
:1002B000FE4F208180910001909301011092000176
:1002C00090E0982F8827820F911D089580E091E09B
:1002D0000895209104012F5F2F7190910301291738
:1002E000E1F3E22FF0E0EB5DFE4F80832093040109
:1002F000E1ECF0E08081806280830895CF93DF930A
:10030000EC012196FC018491882339F00E94690157
:10031000FE01849121968111F9CFDF91CF9108954B
:04032000F894FFCF7F
:00000001FF
