:100000000C9454000C9466000C9466000C946600EA
:100010000C9466000C9466000C9466000C946600C8
:100020000C9466000C9466000C9466000C946600B8
:100030000C9466000C9466000C9466000C946600A8
:100040000C9466000C9466000C94F1000C941F0153
:100050000C9466000C9466000C9466000C94660088
:100060000C9466000C946600427566666572206F9B
:10007000766572666C6F77206572726F723A2000D7
:1000800055415254204F76657272756E20457272DA
:100090006F723A200055415254204672616D6520BE
:1000A0004572726F723A200011241FBECFEFD8E064
:1000B000DEBFCDBF11E0A0E0B1E001C01D92A534CC
:1000C000B107E1F70E94B0010C94BA010C94000052
:1000D00084E284B98CB58F7D8CBD8CB581658CBD77
:1000E0008CB5837F8CBD84E085B90895239A2498CC
:1000F0002A988FE08EBD0DB407FEFDCF089523989A
:10010000249A0DB407FEFDCF8EB50895CF93DF93EB
:100110008FE00E9476000E947F00C82FD0E0DC2F85
:10012000CC27DD0F8FE00E9476000E947F002A9A84
:100130008F719E01282BC901DF91CF91089580E630
:1001400099E00E94490180E188B988B188B982E0CC
:100150008AB90895EF92FF921F93CF93DF931F9276
:10016000CDB7DEB70E94860099830E9480019981F5
:10017000892F0E9480010E946201182FE82EF92E1B
:10018000F0FC1BC0F4FE04C085E990E00E94A101D0
:10019000F3FE04C080E890E00E94A101F1FE04C0DB
:1001A00088E690E00E94A101812F0F90DF91CF910E
:1001B0001F91FF90EF900C9480010F90DF91CF91F1
:1001C0001F91FF90EF90089515B884B1866184B9AE
:1001D00018B887B187B984E08BB98AB1846C8AB9C1
:1001E00008951F920F920FB60F9211242F938F93A1
:1001F0009F93EF93FF938091C0009091C6008C7104
:10020000E0910201EF5FEF7120910101E21739F0F7
:10021000E0930201F0E0EB5FFE4F908301C082E0CB
:1002200090910001892B80930001FF91EF919F91A4
:100230008F912F910F900FBE0F901F9018951F92C6
:100240000F920FB60F9211248F939F93EF93FF930A
:100250009091040180910301981769F0E0910301E6
:10026000EF5FEF71E0930301F0E0EB5DFE4F808103
:100270008093C60005C08091C1008F7D8093C1002E
:10028000FF91EF919F918F910F900FBE0F901F9054
:10029000189510920401109203011092020110921D
:1002A000010197FF03C022E02093C0009078909353
:1002B000C5008093C40088E98093C10086E08093E4
:1002C000C200089590910201809101019817A9F050
:1002D000909101019F5F9F71E92FF0E0EB5FFE4F6E
:1002E000208180910001909301011092000190E023
:1002F000982F8827820F911D089580E091E008953E
:10030000909104019F5F9F71209103019217E1F387
:10031000E92FF0E0EB5DFE4F808390930401809124
:10032000C10080628093C1000895CF93DF93EC01F8
:100330008991882319F00E948001FACFDF91CF9133
:100340000895CF93DF93FC018491EF0121968823D8
:1003500021F00E948001FE01F7CFDF91CF91089537
:100360000E94E4000E9468000E949F0078940E940E
:08037000AA00FDCFF894FFCFB5
:00000001FF
