S028000070726F34455F5465616D325F736F6674776172655F73656E736F72626F6172642E737265634F
S11300000C9434000C943E000C943E000C943E007E
S11300100C943E000C943E000C943E000C943E0064
S11300200C943E000C943E000C943E000C943E0054
S11300300C943E000C943E000C943E000C943E0044
S11300400C943E000C943E000C943E000C943E0034
S11300500C943E000C943E000C943E000C943E0024
S11300600C943E000C943E0011241FBECFEFD8E048
S1130070DEBFCDBF0E9455000C9460000C940000BC
S113008010927C00EAE7F0E080818768808308951D
S1130090EAE7F0E0808180648083808186FDFDCF83
S11300A0809178009091790008950E9440000E9408
S11300B0480087EA91E60197F1F700C00000F7CF06
S10700C0F894FFCFDE
S9030000FC
