:100000000C9434000C943E000C943E000C943E0082
:100010000C943E000C943E000C943E000C943E0068
:100020000C943E000C943E000C943E000C943E0058
:100030000C943E000C943E000C943E000C943E0048
:100040000C943E000C943E000C943E000C943E0038
:100050000C943E000C943E000C943E000C943E0028
:100060000C943E000C943E0011241FBECFEFD8E04C
:10007000DEBFCDBF0E944D000C947B000C940000AD
:1000800015B884B1866184B918B887B187B984E09E
:100090008BB98AB1846C8AB908950E9471000E945C
:1000A0004000C8E081E00E94760080EA0E9476006D
:1000B000C5B91BB881E08BB98BB18BB92A9A8BB1CA
:1000C0008BB98BB18BB98BB18BB98BB18BB92FEF4E
:1000D00080E792E0215080409040E1F700C00000AE
:1000E000E1CF88E284B981E58CBD08958EBD0DB461
:0A00F00007FEFDCF0895F894FFCF3E
:00000001FF
