:100000000C9434000C943E000C943E000C943E0082
:100010000C943E000C943E000C943E000C943E0068
:100020000C943E000C943E000C943E000C943E0058
:100030000C943E000C943E000C943E000C943E0048
:100040000C943E000C943E000C943E000C943E0038
:100050000C943E000C943E000C943E000C943E0028
:100060000C943E000C943E0011241FBECFEFD8E04C
:10007000DEBFCDBF0E9457000C947A000C940000A4
:1000800015B884B1866184B918B887B187B984E09E
:100090008BB98AB1846C8AB9089588E284B981E504
:1000A0008CBD08958EBD0DB407FEFDCF08950E944E
:1000B0004D000E944000D8E0C1E08FEF90E00E9428
:1000C0005200D5B91BB8CBB98BB18BB985B185B905
:1000D0008BB18BB985B185B98BB18BB98BB18BB92C
:1000E0002FEF80E792E0215080409040E1F700C080
:0800F0000000E3CFF894FFCFFC
:00000001FF
