:100000000C9434000C943E000C943E000C943E0082
:100010000C943E000C943E000C943E000C943E0068
:100020000C943E000C943E000C943E000C943E0058
:100030000C943E000C943E000C943E000C943E0048
:100040000C943E000C943E000C943E000C943E0038
:100050000C943E000C943E000C943E000C943E0028
:100060000C943E000C943E0011241FBECFEFD8E04C
:10007000DEBFCDBF0E945C000C946D000C940000AC
:1000800015B88FE384B918B817B8089581E4809340
:100090007C00EAE7F0E08081876880830895EAE7E2
:1000A000F0E0808180648083808186FDFDCF809137
:1000B00078009091790008950E9446000E944000C7
:1000C0000E944F0085B92FEF81EE94E021508040CF
:0E00D0009040E1F700C00000F3CFF894FFCF9E
:00000001FF
